{"abi":[{"type":"constructor","inputs":[{"name":"subscriptionId","type":"uint256","internalType":"uint256"},{"name":"gasLane","type":"bytes32","internalType":"bytes32"},{"name":"interval","type":"uint256","internalType":"uint256"},{"name":"entranceFee","type":"uint256","internalType":"uint256"},{"name":"callbackGasLimit","type":"uint32","internalType":"uint32"},{"name":"vrfCoordinatorV2","type":"address","internalType":"address"}],"stateMutability":"nonpayable"},{"type":"function","name":"acceptOwnership","inputs":[],"outputs":[],"stateMutability":"nonpayable"},{"type":"function","name":"checkUpkeep","inputs":[{"name":"","type":"bytes","internalType":"bytes"}],"outputs":[{"name":"upkeepNeeded","type":"bool","internalType":"bool"},{"name":"","type":"bytes","internalType":"bytes"}],"stateMutability":"view"},{"type":"function","name":"enterRaffle","inputs":[],"outputs":[],"stateMutability":"payable"},{"type":"function","name":"getEntranceFee","inputs":[],"outputs":[{"name":"","type":"uint256","internalType":"uint256"}],"stateMutability":"view"},{"type":"function","name":"getInterval","inputs":[],"outputs":[{"name":"","type":"uint256","internalType":"uint256"}],"stateMutability":"view"},{"type":"function","name":"getLastTimeStamp","inputs":[],"outputs":[{"name":"","type":"uint256","internalType":"uint256"}],"stateMutability":"view"},{"type":"function","name":"getNumWords","inputs":[],"outputs":[{"name":"","type":"uint256","internalType":"uint256"}],"stateMutability":"pure"},{"type":"function","name":"getNumberOfPlayers","inputs":[],"outputs":[{"name":"","type":"uint256","internalType":"uint256"}],"stateMutability":"view"},{"type":"function","name":"getPlayer","inputs":[{"name":"index","type":"uint256","internalType":"uint256"}],"outputs":[{"name":"","type":"address","internalType":"address"}],"stateMutability":"view"},{"type":"function","name":"getRaffleState","inputs":[],"outputs":[{"name":"","type":"uint8","internalType":"enum Raffle.RaffleState"}],"stateMutability":"view"},{"type":"function","name":"getRecentWinner","inputs":[],"outputs":[{"name":"","type":"address","internalType":"address"}],"stateMutability":"view"},{"type":"function","name":"getRequestConfirmations","inputs":[],"outputs":[{"name":"","type":"uint256","internalType":"uint256"}],"stateMutability":"pure"},{"type":"function","name":"owner","inputs":[],"outputs":[{"name":"","type":"address","internalType":"address"}],"stateMutability":"view"},{"type":"function","name":"performUpkeep","inputs":[{"name":"","type":"bytes","internalType":"bytes"}],"outputs":[],"stateMutability":"nonpayable"},{"type":"function","name":"rawFulfillRandomWords","inputs":[{"name":"requestId","type":"uint256","internalType":"uint256"},{"name":"randomWords","type":"uint256[]","internalType":"uint256[]"}],"outputs":[],"stateMutability":"nonpayable"},{"type":"function","name":"s_vrfCoordinator","inputs":[],"outputs":[{"name":"","type":"address","internalType":"contract IVRFCoordinatorV2Plus"}],"stateMutability":"view"},{"type":"function","name":"setCoordinator","inputs":[{"name":"_vrfCoordinator","type":"address","internalType":"address"}],"outputs":[],"stateMutability":"nonpayable"},{"type":"function","name":"transferOwnership","inputs":[{"name":"to","type":"address","internalType":"address"}],"outputs":[],"stateMutability":"nonpayable"},{"type":"event","name":"CoordinatorSet","inputs":[{"name":"vrfCoordinator","type":"address","indexed":false,"internalType":"address"}],"anonymous":false},{"type":"event","name":"OwnershipTransferRequested","inputs":[{"name":"from","type":"address","indexed":true,"internalType":"address"},{"name":"to","type":"address","indexed":true,"internalType":"address"}],"anonymous":false},{"type":"event","name":"OwnershipTransferred","inputs":[{"name":"from","type":"address","indexed":true,"internalType":"address"},{"name":"to","type":"address","indexed":true,"internalType":"address"}],"anonymous":false},{"type":"event","name":"RaffleEnter","inputs":[{"name":"player","type":"address","indexed":true,"internalType":"address"}],"anonymous":false},{"type":"event","name":"RequestedRaffleWinner","inputs":[{"name":"requestId","type":"uint256","indexed":true,"internalType":"uint256"}],"anonymous":false},{"type":"event","name":"WinnerPicked","inputs":[{"name":"player","type":"address","indexed":true,"internalType":"address"}],"anonymous":false},{"type":"error","name":"OnlyCoordinatorCanFulfill","inputs":[{"name":"have","type":"address","internalType":"address"},{"name":"want","type":"address","internalType":"address"}]},{"type":"error","name":"OnlyOwnerOrCoordinator","inputs":[{"name":"have","type":"address","internalType":"address"},{"name":"owner","type":"address","internalType":"address"},{"name":"coordinator","type":"address","internalType":"address"}]},{"type":"error","name":"Raffle__RaffleNotOpen","inputs":[]},{"type":"error","name":"Raffle__SendMoreToEnterRaffle","inputs":[]},{"type":"error","name":"Raffle__TransferFailed","inputs":[]},{"type":"error","name":"Raffle__UpkeepNotNeeded","inputs":[{"name":"currentBalance","type":"uint256","internalType":"uint256"},{"name":"numPlayers","type":"uint256","internalType":"uint256"},{"name":"raffleState","type":"uint256","internalType":"uint256"}]},{"type":"error","name":"ZeroAddress","inputs":[]}],"bytecode":{"object":"0x6101206040523480156200001257600080fd5b506040516200257f3803806200257f8339818101604052810190620000389190620004a7565b80338060008073ffffffffffffffffffffffffffffffffffffffff168273ffffffffffffffffffffffffffffffffffffffff1603620000ae576040517f08c379a0000000000000000000000000000000000000000000000000000000008152600401620000a590620005a4565b60405180910390fd5b816000806101000a81548173ffffffffffffffffffffffffffffffffffffffff021916908373ffffffffffffffffffffffffffffffffffffffff160217905550600073ffffffffffffffffffffffffffffffffffffffff168173ffffffffffffffffffffffffffffffffffffffff1614620001355762000134816200025760201b60201c565b5b505050600073ffffffffffffffffffffffffffffffffffffffff168173ffffffffffffffffffffffffffffffffffffffff16036200019f576040517fd92e233d00000000000000000000000000000000000000000000000000000000815260040160405180910390fd5b80600260006101000a81548173ffffffffffffffffffffffffffffffffffffffff021916908373ffffffffffffffffffffffffffffffffffffffff160217905550508460a081815250508360e0818152505085608081815250508261010081815250506000600660006101000a81548160ff021916908360018111156200022b576200022a620005c6565b5b0217905550426003819055508163ffffffff1660c08163ffffffff168152505050505050505062000667565b3373ffffffffffffffffffffffffffffffffffffffff168173ffffffffffffffffffffffffffffffffffffffff1603620002c8576040517f08c379a0000000000000000000000000000000000000000000000000000000008152600401620002bf9062000645565b60405180910390fd5b80600160006101000a81548173ffffffffffffffffffffffffffffffffffffffff021916908373ffffffffffffffffffffffffffffffffffffffff1602179055508073ffffffffffffffffffffffffffffffffffffffff1660008054906101000a900473ffffffffffffffffffffffffffffffffffffffff1673ffffffffffffffffffffffffffffffffffffffff167fed8889f560326eb138920d842192f0eb3dd22b4f139c87a2c57538e05bae127860405160405180910390a350565b600080fd5b6000819050919050565b620003a0816200038b565b8114620003ac57600080fd5b50565b600081519050620003c08162000395565b92915050565b6000819050919050565b620003db81620003c6565b8114620003e757600080fd5b50565b600081519050620003fb81620003d0565b92915050565b600063ffffffff82169050919050565b6200041c8162000401565b81146200042857600080fd5b50565b6000815190506200043c8162000411565b92915050565b600073ffffffffffffffffffffffffffffffffffffffff82169050919050565b60006200046f8262000442565b9050919050565b620004818162000462565b81146200048d57600080fd5b50565b600081519050620004a18162000476565b92915050565b60008060008060008060c08789031215620004c757620004c662000386565b5b6000620004d789828a01620003af565b9650506020620004ea89828a01620003ea565b9550506040620004fd89828a01620003af565b94505060606200051089828a01620003af565b93505060806200052389828a016200042b565b92505060a06200053689828a0162000490565b9150509295509295509295565b600082825260208201905092915050565b7f43616e6e6f7420736574206f776e657220746f207a65726f0000000000000000600082015250565b60006200058c60188362000543565b9150620005998262000554565b602082019050919050565b60006020820190508181036000830152620005bf816200057d565b9050919050565b7f4e487b7100000000000000000000000000000000000000000000000000000000600052602160045260246000fd5b7f43616e6e6f74207472616e7366657220746f2073656c66000000000000000000600082015250565b60006200062d60178362000543565b91506200063a82620005f5565b602082019050919050565b6000602082019050818103600083015262000660816200061e565b9050919050565b60805160a05160c05160e05161010051611ec5620006ba6000396000818161040001526105030152600081816109390152610d81015260006107c801526000610771015260006107970152611ec56000f3fe6080604052600436106101095760003560e01c806379ba5097116100955780639eccacf6116100645780639eccacf614610315578063c1c244e814610340578063e55ae4e81461036b578063f2fde38b146103a8578063fd6673f5146103d157610109565b806379ba50971461027f5780638da5cb5b146102965780638ea98117146102c157806391ad27b4146102ea57610109565b80634585e33b116100dc5780634585e33b14610197578063473f1ddc146101c057806353a2c19a146101eb5780635f1b0fd8146102165780636e04ff0d1461024157610109565b806309bc33a71461010e578063115cbaf5146101395780631fe543e3146101645780632cfcc5391461018d575b600080fd5b34801561011a57600080fd5b506101236103fc565b6040516101309190611385565b60405180910390f35b34801561014557600080fd5b5061014e610424565b60405161015b9190611417565b60405180910390f35b34801561017057600080fd5b5061018b600480360381019061018691906114d7565b61043b565b005b610195610501565b005b3480156101a357600080fd5b506101be60048036038101906101b9919061158d565b610670565b005b3480156101cc57600080fd5b506101d56108b0565b6040516101e2919061161b565b60405180910390f35b3480156101f757600080fd5b506102006108da565b60405161020d9190611385565b60405180910390f35b34801561022257600080fd5b5061022b6108e9565b6040516102389190611385565b60405180910390f35b34801561024d57600080fd5b5061026860048036038101906102639190611777565b6108f6565b60405161027692919061185a565b60405180910390f35b34801561028b57600080fd5b506102946109de565b005b3480156102a257600080fd5b506102ab610b73565b6040516102b8919061161b565b60405180910390f35b3480156102cd57600080fd5b506102e860048036038101906102e391906118b6565b610b9c565b005b3480156102f657600080fd5b506102ff610d7d565b60405161030c9190611385565b60405180910390f35b34801561032157600080fd5b5061032a610da5565b6040516103379190611942565b60405180910390f35b34801561034c57600080fd5b50610355610dcb565b6040516103629190611385565b60405180910390f35b34801561037757600080fd5b50610392600480360381019061038d919061195d565b610dd5565b60405161039f919061161b565b60405180910390f35b3480156103b457600080fd5b506103cf60048036038101906103ca91906118b6565b610e1d565b005b3480156103dd57600080fd5b506103e6610e31565b6040516103f39190611385565b60405180910390f35b60007f0000000000000000000000000000000000000000000000000000000000000000905090565b6000600660009054906101000a900460ff16905090565b600260009054906101000a900473ffffffffffffffffffffffffffffffffffffffff1673ffffffffffffffffffffffffffffffffffffffff163373ffffffffffffffffffffffffffffffffffffffff16146104f15733600260009054906101000a900473ffffffffffffffffffffffffffffffffffffffff166040517f1cf993f40000000000000000000000000000000000000000000000000000000081526004016104e892919061198a565b60405180910390fd5b6104fc838383610e3e565b505050565b7f000000000000000000000000000000000000000000000000000000000000000034101561055b576040517f3038c00a00000000000000000000000000000000000000000000000000000000815260040160405180910390fd5b6000600181111561056f5761056e6113a0565b5b600660009054906101000a900460ff166001811115610591576105906113a0565b5b146105c8576040517fd24a271400000000000000000000000000000000000000000000000000000000815260040160405180910390fd5b6005339080600181540180825580915050600190039060005260206000200160009091909190916101000a81548173ffffffffffffffffffffffffffffffffffffffff021916908373ffffffffffffffffffffffffffffffffffffffff1602179055503373ffffffffffffffffffffffffffffffffffffffff167f0805e1d667bddb8a95f0f09880cf94f403fb596ce79928d9f29b74203ba284d460405160405180910390a2565b600061068a604051806020016040528060008152506108f6565b509050806106f95747600580549050600660009054906101000a900460ff1660018111156106bb576106ba6113a0565b5b6040517f584327aa0000000000000000000000000000000000000000000000000000000081526004016106f0939291906119b3565b60405180910390fd5b6001600660006101000a81548160ff0219169083600181111561071f5761071e6113a0565b5b02179055506000600260009054906101000a900473ffffffffffffffffffffffffffffffffffffffff1673ffffffffffffffffffffffffffffffffffffffff16639b1c385e6040518060c001604052807f000000000000000000000000000000000000000000000000000000000000000081526020017f00000000000000000000000000000000000000000000000000000000000000008152602001600361ffff1681526020017f000000000000000000000000000000000000000000000000000000000000000063ffffffff168152602001600163ffffffff168152602001610819604051806020016040528060001515815250611071565b8152506040518263ffffffff1660e01b81526004016108389190611b21565b6020604051808303816000875af1158015610857573d6000803e3d6000fd5b505050506040513d601f19601f8201168201806040525081019061087b9190611b58565b9050807fcd6e45c8998311cab7e9d4385596cac867e20a0587194b954fa3a731c93ce78b60405160405180910390a250505050565b6000600460009054906101000a900473ffffffffffffffffffffffffffffffffffffffff16905090565b6000600163ffffffff16905090565b6000600361ffff16905090565b600060606000600660009054906101000a900460ff16600181111561091e5761091d6113a0565b5b60006001811115610932576109316113a0565b5b14905060007f0000000000000000000000000000000000000000000000000000000000000000600354426109669190611bb4565b119050600080600580549050119050600080471190508280156109865750835b801561098f5750805b80156109985750815b9550856040518060400160405280600381526020017f30783000000000000000000000000000000000000000000000000000000000008152509550955050505050915091565b600160009054906101000a900473ffffffffffffffffffffffffffffffffffffffff1673ffffffffffffffffffffffffffffffffffffffff163373ffffffffffffffffffffffffffffffffffffffff1614610a6e576040517f08c379a0000000000000000000000000000000000000000000000000000000008152600401610a6590611c45565b60405180910390fd5b60008060009054906101000a900473ffffffffffffffffffffffffffffffffffffffff169050336000806101000a81548173ffffffffffffffffffffffffffffffffffffffff021916908373ffffffffffffffffffffffffffffffffffffffff1602179055506000600160006101000a81548173ffffffffffffffffffffffffffffffffffffffff021916908373ffffffffffffffffffffffffffffffffffffffff1602179055503373ffffffffffffffffffffffffffffffffffffffff168173ffffffffffffffffffffffffffffffffffffffff167f8be0079c531659141344cd1fd0a4f28419497f9722a3daafe3b4186f6b6457e060405160405180910390a350565b60008060009054906101000a900473ffffffffffffffffffffffffffffffffffffffff16905090565b610ba4610b73565b73ffffffffffffffffffffffffffffffffffffffff163373ffffffffffffffffffffffffffffffffffffffff1614158015610c2d5750600260009054906101000a900473ffffffffffffffffffffffffffffffffffffffff1673ffffffffffffffffffffffffffffffffffffffff163373ffffffffffffffffffffffffffffffffffffffff1614155b15610c9c5733610c3b610b73565b600260009054906101000a900473ffffffffffffffffffffffffffffffffffffffff166040517f061db9c1000000000000000000000000000000000000000000000000000000008152600401610c9393929190611c65565b60405180910390fd5b600073ffffffffffffffffffffffffffffffffffffffff168173ffffffffffffffffffffffffffffffffffffffff1603610d02576040517fd92e233d00000000000000000000000000000000000000000000000000000000815260040160405180910390fd5b80600260006101000a81548173ffffffffffffffffffffffffffffffffffffffff021916908373ffffffffffffffffffffffffffffffffffffffff1602179055507fd1a6a14209a385a964d036e404cb5cfb71f4000cdb03c9366292430787261be681604051610d72919061161b565b60405180910390a150565b60007f0000000000000000000000000000000000000000000000000000000000000000905090565b600260009054906101000a900473ffffffffffffffffffffffffffffffffffffffff1681565b6000600354905090565b600060058281548110610deb57610dea611c9c565b5b9060005260206000200160009054906101000a900473ffffffffffffffffffffffffffffffffffffffff169050919050565b610e25611109565b610e2e81611199565b50565b6000600580549050905090565b600060058054905083836000818110610e5a57610e59611c9c565b5b90506020020135610e6b9190611cfa565b9050600060058281548110610e8357610e82611c9c565b5b9060005260206000200160009054906101000a900473ffffffffffffffffffffffffffffffffffffffff16905080600460006101000a81548173ffffffffffffffffffffffffffffffffffffffff021916908373ffffffffffffffffffffffffffffffffffffffff160217905550600067ffffffffffffffff811115610f0c57610f0b61164c565b5b604051908082528060200260200182016040528015610f3a5781602001602082028036833780820191505090505b5060059080519060200190610f509291906112c5565b506000600660006101000a81548160ff02191690836001811115610f7757610f766113a0565b5b0217905550426003819055508073ffffffffffffffffffffffffffffffffffffffff167f5b690ec4a06fe979403046eaeea5b3ce38524683c3001f662c8b5a829632f7df60405160405180910390a260008173ffffffffffffffffffffffffffffffffffffffff1647604051610fec90611d5c565b60006040518083038185875af1925050503d8060008114611029576040519150601f19603f3d011682016040523d82523d6000602084013e61102e565b606091505b5050905080611069576040517fa1d04b3900000000000000000000000000000000000000000000000000000000815260040160405180910390fd5b505050505050565b60607f92fd13387c7fe7befbc38d303d6468778fb9731bc4583f17d92989c6fcfdeaaa826040516024016110a59190611d9c565b604051602081830303815290604052907bffffffffffffffffffffffffffffffffffffffffffffffffffffffff19166020820180517bffffffffffffffffffffffffffffffffffffffffffffffffffffffff83818316178352505050509050919050565b60008054906101000a900473ffffffffffffffffffffffffffffffffffffffff1673ffffffffffffffffffffffffffffffffffffffff163373ffffffffffffffffffffffffffffffffffffffff1614611197576040517f08c379a000000000000000000000000000000000000000000000000000000000815260040161118e90611e03565b60405180910390fd5b565b3373ffffffffffffffffffffffffffffffffffffffff168173ffffffffffffffffffffffffffffffffffffffff1603611207576040517f08c379a00000000000000000000000000000000000000000000000000000000081526004016111fe90611e6f565b60405180910390fd5b80600160006101000a81548173ffffffffffffffffffffffffffffffffffffffff021916908373ffffffffffffffffffffffffffffffffffffffff1602179055508073ffffffffffffffffffffffffffffffffffffffff1660008054906101000a900473ffffffffffffffffffffffffffffffffffffffff1673ffffffffffffffffffffffffffffffffffffffff167fed8889f560326eb138920d842192f0eb3dd22b4f139c87a2c57538e05bae127860405160405180910390a350565b82805482825590600052602060002090810192821561133e579160200282015b8281111561133d5782518260006101000a81548173ffffffffffffffffffffffffffffffffffffffff021916908373ffffffffffffffffffffffffffffffffffffffff160217905550916020019190600101906112e5565b5b50905061134b919061134f565b5090565b5b80821115611368576000816000905550600101611350565b5090565b6000819050919050565b61137f8161136c565b82525050565b600060208201905061139a6000830184611376565b92915050565b7f4e487b7100000000000000000000000000000000000000000000000000000000600052602160045260246000fd5b600281106113e0576113df6113a0565b5b50565b60008190506113f1826113cf565b919050565b6000611401826113e3565b9050919050565b611411816113f6565b82525050565b600060208201905061142c6000830184611408565b92915050565b6000604051905090565b600080fd5b600080fd5b61144f8161136c565b811461145a57600080fd5b50565b60008135905061146c81611446565b92915050565b600080fd5b600080fd5b600080fd5b60008083601f84011261149757611496611472565b5b8235905067ffffffffffffffff8111156114b4576114b3611477565b5b6020830191508360208202830111156114d0576114cf61147c565b5b9250929050565b6000806000604084860312156114f0576114ef61143c565b5b60006114fe8682870161145d565b935050602084013567ffffffffffffffff81111561151f5761151e611441565b5b61152b86828701611481565b92509250509250925092565b60008083601f84011261154d5761154c611472565b5b8235905067ffffffffffffffff81111561156a57611569611477565b5b6020830191508360018202830111156115865761158561147c565b5b9250929050565b600080602083850312156115a4576115a361143c565b5b600083013567ffffffffffffffff8111156115c2576115c1611441565b5b6115ce85828601611537565b92509250509250929050565b600073ffffffffffffffffffffffffffffffffffffffff82169050919050565b6000611605826115da565b9050919050565b611615816115fa565b82525050565b6000602082019050611630600083018461160c565b92915050565b600080fd5b6000601f19601f8301169050919050565b7f4e487b7100000000000000000000000000000000000000000000000000000000600052604160045260246000fd5b6116848261163b565b810181811067ffffffffffffffff821117156116a3576116a261164c565b5b80604052505050565b60006116b6611432565b90506116c2828261167b565b919050565b600067ffffffffffffffff8211156116e2576116e161164c565b5b6116eb8261163b565b9050602081019050919050565b82818337600083830152505050565b600061171a611715846116c7565b6116ac565b90508281526020810184848401111561173657611735611636565b5b6117418482856116f8565b509392505050565b600082601f83011261175e5761175d611472565b5b813561176e848260208601611707565b91505092915050565b60006020828403121561178d5761178c61143c565b5b600082013567ffffffffffffffff8111156117ab576117aa611441565b5b6117b784828501611749565b91505092915050565b60008115159050919050565b6117d5816117c0565b82525050565b600081519050919050565b600082825260208201905092915050565b60005b838110156118155780820151818401526020810190506117fa565b60008484015250505050565b600061182c826117db565b61183681856117e6565b93506118468185602086016117f7565b61184f8161163b565b840191505092915050565b600060408201905061186f60008301856117cc565b81810360208301526118818184611821565b90509392505050565b611893816115fa565b811461189e57600080fd5b50565b6000813590506118b08161188a565b92915050565b6000602082840312156118cc576118cb61143c565b5b60006118da848285016118a1565b91505092915050565b6000819050919050565b60006119086119036118fe846115da565b6118e3565b6115da565b9050919050565b600061191a826118ed565b9050919050565b600061192c8261190f565b9050919050565b61193c81611921565b82525050565b60006020820190506119576000830184611933565b92915050565b6000602082840312156119735761197261143c565b5b60006119818482850161145d565b91505092915050565b600060408201905061199f600083018561160c565b6119ac602083018461160c565b9392505050565b60006060820190506119c86000830186611376565b6119d56020830185611376565b6119e26040830184611376565b949350505050565b6000819050919050565b6119fd816119ea565b82525050565b611a0c8161136c565b82525050565b600061ffff82169050919050565b611a2981611a12565b82525050565b600063ffffffff82169050919050565b611a4881611a2f565b82525050565b600082825260208201905092915050565b6000611a6a826117db565b611a748185611a4e565b9350611a848185602086016117f7565b611a8d8161163b565b840191505092915050565b600060c083016000830151611ab060008601826119f4565b506020830151611ac36020860182611a03565b506040830151611ad66040860182611a20565b506060830151611ae96060860182611a3f565b506080830151611afc6080860182611a3f565b5060a083015184820360a0860152611b148282611a5f565b9150508091505092915050565b60006020820190508181036000830152611b3b8184611a98565b905092915050565b600081519050611b5281611446565b92915050565b600060208284031215611b6e57611b6d61143c565b5b6000611b7c84828501611b43565b91505092915050565b7f4e487b7100000000000000000000000000000000000000000000000000000000600052601160045260246000fd5b6000611bbf8261136c565b9150611bca8361136c565b9250828203905081811115611be257611be1611b85565b5b92915050565b600082825260208201905092915050565b7f4d7573742062652070726f706f736564206f776e657200000000000000000000600082015250565b6000611c2f601683611be8565b9150611c3a82611bf9565b602082019050919050565b60006020820190508181036000830152611c5e81611c22565b9050919050565b6000606082019050611c7a600083018661160c565b611c87602083018561160c565b611c94604083018461160c565b949350505050565b7f4e487b7100000000000000000000000000000000000000000000000000000000600052603260045260246000fd5b7f4e487b7100000000000000000000000000000000000000000000000000000000600052601260045260246000fd5b6000611d058261136c565b9150611d108361136c565b925082611d2057611d1f611ccb565b5b828206905092915050565b600081905092915050565b50565b6000611d46600083611d2b565b9150611d5182611d36565b600082019050919050565b6000611d6782611d39565b9150819050919050565b611d7a816117c0565b82525050565b602082016000820151611d966000850182611d71565b50505050565b6000602082019050611db16000830184611d80565b92915050565b7f4f6e6c792063616c6c61626c65206279206f776e657200000000000000000000600082015250565b6000611ded601683611be8565b9150611df882611db7565b602082019050919050565b60006020820190508181036000830152611e1c81611de0565b9050919050565b7f43616e6e6f74207472616e7366657220746f2073656c66000000000000000000600082015250565b6000611e59601783611be8565b9150611e6482611e23565b602082019050919050565b60006020820190508181036000830152611e8881611e4c565b905091905056fea264697066735822122003afa2244193e9d26f4ac84f1d49c5b2c79a7c9a5b67618bd95501e57781138364736f6c63430008130033","linkReferences":{}},"methodIdentifiers":{"acceptOwnership()":"79ba5097","checkUpkeep(bytes)":"6e04ff0d","enterRaffle()":"2cfcc539","getEntranceFee()":"09bc33a7","getInterval()":"91ad27b4","getLastTimeStamp()":"c1c244e8","getNumWords()":"53a2c19a","getNumberOfPlayers()":"fd6673f5","getPlayer(uint256)":"e55ae4e8","getRaffleState()":"115cbaf5","getRecentWinner()":"473f1ddc","getRequestConfirmations()":"5f1b0fd8","owner()":"8da5cb5b","performUpkeep(bytes)":"4585e33b","rawFulfillRandomWords(uint256,uint256[])":"1fe543e3","s_vrfCoordinator()":"9eccacf6","setCoordinator(address)":"8ea98117","transferOwnership(address)":"f2fde38b"},"id":45}