{"abi":[{"type":"constructor","inputs":[],"stateMutability":"nonpayable"},{"type":"function","name":"DOMAIN_SEPARATOR","inputs":[],"outputs":[{"name":"","type":"bytes32","internalType":"bytes32"}],"stateMutability":"view"},{"type":"function","name":"PERMIT_TYPEHASH","inputs":[],"outputs":[{"name":"","type":"bytes32","internalType":"bytes32"}],"stateMutability":"view"},{"type":"function","name":"allowance","inputs":[{"name":"","type":"address","internalType":"address"},{"name":"","type":"address","internalType":"address"}],"outputs":[{"name":"","type":"uint256","internalType":"uint256"}],"stateMutability":"view"},{"type":"function","name":"approve","inputs":[{"name":"spender","type":"address","internalType":"address"},{"name":"amount","type":"uint256","internalType":"uint256"}],"outputs":[{"name":"","type":"bool","internalType":"bool"}],"stateMutability":"nonpayable"},{"type":"function","name":"balanceOf","inputs":[{"name":"","type":"address","internalType":"address"}],"outputs":[{"name":"","type":"uint256","internalType":"uint256"}],"stateMutability":"view"},{"type":"function","name":"decimals","inputs":[],"outputs":[{"name":"","type":"uint8","internalType":"uint8"}],"stateMutability":"view"},{"type":"function","name":"mint","inputs":[{"name":"to","type":"address","internalType":"address"},{"name":"value","type":"uint256","internalType":"uint256"}],"outputs":[],"stateMutability":"nonpayable"},{"type":"function","name":"name","inputs":[],"outputs":[{"name":"","type":"string","internalType":"string"}],"stateMutability":"view"},{"type":"function","name":"nonces","inputs":[{"name":"","type":"address","internalType":"address"}],"outputs":[{"name":"","type":"uint256","internalType":"uint256"}],"stateMutability":"view"},{"type":"function","name":"permit","inputs":[{"name":"owner","type":"address","internalType":"address"},{"name":"spender","type":"address","internalType":"address"},{"name":"value","type":"uint256","internalType":"uint256"},{"name":"deadline","type":"uint256","internalType":"uint256"},{"name":"v","type":"uint8","internalType":"uint8"},{"name":"r","type":"bytes32","internalType":"bytes32"},{"name":"s","type":"bytes32","internalType":"bytes32"}],"outputs":[],"stateMutability":"nonpayable"},{"type":"function","name":"symbol","inputs":[],"outputs":[{"name":"","type":"string","internalType":"string"}],"stateMutability":"view"},{"type":"function","name":"totalSupply","inputs":[],"outputs":[{"name":"","type":"uint256","internalType":"uint256"}],"stateMutability":"view"},{"type":"function","name":"transfer","inputs":[{"name":"to","type":"address","internalType":"address"},{"name":"amount","type":"uint256","internalType":"uint256"}],"outputs":[{"name":"","type":"bool","internalType":"bool"}],"stateMutability":"nonpayable"},{"type":"function","name":"transferAndCall","inputs":[{"name":"_to","type":"address","internalType":"address"},{"name":"_value","type":"uint256","internalType":"uint256"},{"name":"_data","type":"bytes","internalType":"bytes"}],"outputs":[{"name":"success","type":"bool","internalType":"bool"}],"stateMutability":"nonpayable"},{"type":"function","name":"transferFrom","inputs":[{"name":"from","type":"address","internalType":"address"},{"name":"to","type":"address","internalType":"address"},{"name":"amount","type":"uint256","internalType":"uint256"}],"outputs":[{"name":"","type":"bool","internalType":"bool"}],"stateMutability":"nonpayable"},{"type":"event","name":"Approval","inputs":[{"name":"owner","type":"address","indexed":true,"internalType":"address"},{"name":"spender","type":"address","indexed":true,"internalType":"address"},{"name":"amount","type":"uint256","indexed":false,"internalType":"uint256"}],"anonymous":false},{"type":"event","name":"Transfer","inputs":[{"name":"from","type":"address","indexed":true,"internalType":"address"},{"name":"to","type":"address","indexed":true,"internalType":"address"},{"name":"value","type":"uint256","indexed":false,"internalType":"uint256"},{"name":"data","type":"bytes","indexed":false,"internalType":"bytes"}],"anonymous":false},{"type":"event","name":"Transfer","inputs":[{"name":"from","type":"address","indexed":true,"internalType":"address"},{"name":"to","type":"address","indexed":true,"internalType":"address"},{"name":"amount","type":"uint256","indexed":false,"internalType":"uint256"}],"anonymous":false}],"bytecode":{"object":"0x60e06040523480156200001157600080fd5b506040518060400160405280600981526020017f4c696e6b546f6b656e00000000000000000000000000000000000000000000008152506040518060400160405280600481526020017f4c494e4b0000000000000000000000000000000000000000000000000000000081525060128260009081620000919190620004d4565b508160019081620000a39190620004d4565b508060ff1660808160ff16815250504660a08181525050620000ca620000f660201b60201c565b60c08181525050505050620000f03369d3c21bcecceda10000006200018660201b60201c565b620007d8565b60007f8b73c3c69bb8fe3d512ecc4cf759cc79239f7b179b0ffacaa9a75d522b39400f60006040516200012a91906200066a565b60405180910390207fc89efdaa54c0f20c7adf612882df0950f5a951637e0307cdcb4c672f298b8bc646306040516020016200016b959493929190620006f4565b60405160208183030381529060405280519060200120905090565b80600260008282546200019a919062000780565b9250508190555080600360008473ffffffffffffffffffffffffffffffffffffffff1673ffffffffffffffffffffffffffffffffffffffff168152602001908152602001600020600082825401925050819055508173ffffffffffffffffffffffffffffffffffffffff16600073ffffffffffffffffffffffffffffffffffffffff167fddf252ad1be2c89b69c2b068fc378daa952ba7f163c4a11628f55a4df523b3ef836040516200024e9190620007bb565b60405180910390a35050565b600081519050919050565b7f4e487b7100000000000000000000000000000000000000000000000000000000600052604160045260246000fd5b7f4e487b7100000000000000000000000000000000000000000000000000000000600052602260045260246000fd5b60006002820490506001821680620002dc57607f821691505b602082108103620002f257620002f162000294565b5b50919050565b60008190508160005260206000209050919050565b60006020601f8301049050919050565b600082821b905092915050565b6000600883026200035c7fffffffffffffffffffffffffffffffffffffffffffffffffffffffffffffffff826200031d565b6200036886836200031d565b95508019841693508086168417925050509392505050565b6000819050919050565b6000819050919050565b6000620003b5620003af620003a98462000380565b6200038a565b62000380565b9050919050565b6000819050919050565b620003d18362000394565b620003e9620003e082620003bc565b8484546200032a565b825550505050565b600090565b62000400620003f1565b6200040d818484620003c6565b505050565b5b81811015620004355762000429600082620003f6565b60018101905062000413565b5050565b601f82111562000484576200044e81620002f8565b62000459846200030d565b8101602085101562000469578190505b6200048162000478856200030d565b83018262000412565b50505b505050565b600082821c905092915050565b6000620004a96000198460080262000489565b1980831691505092915050565b6000620004c4838362000496565b9150826002028217905092915050565b620004df826200025a565b67ffffffffffffffff811115620004fb57620004fa62000265565b5b620005078254620002c3565b6200051482828562000439565b600060209050601f8311600181146200054c576000841562000537578287015190505b620005438582620004b6565b865550620005b3565b601f1984166200055c86620002f8565b60005b8281101562000586578489015182556001820191506020850194506020810190506200055f565b86831015620005a65784890151620005a2601f89168262000496565b8355505b6001600288020188555050505b505050505050565b600081905092915050565b60008190508160005260206000209050919050565b60008154620005ea81620002c3565b620005f68186620005bb565b945060018216600081146200061457600181146200062a5762000661565b60ff198316865281151582028601935062000661565b6200063585620005c6565b60005b83811015620006595781548189015260018201915060208101905062000638565b838801955050505b50505092915050565b6000620006788284620005db565b915081905092915050565b6000819050919050565b620006988162000683565b82525050565b620006a98162000380565b82525050565b600073ffffffffffffffffffffffffffffffffffffffff82169050919050565b6000620006dc82620006af565b9050919050565b620006ee81620006cf565b82525050565b600060a0820190506200070b60008301886200068d565b6200071a60208301876200068d565b6200072960408301866200068d565b6200073860608301856200069e565b620007476080830184620006e3565b9695505050505050565b7f4e487b7100000000000000000000000000000000000000000000000000000000600052601160045260246000fd5b60006200078d8262000380565b91506200079a8362000380565b9250828201905080821115620007b557620007b462000751565b5b92915050565b6000602082019050620007d260008301846200069e565b92915050565b60805160a05160c051611a2d620008086000396000610786015260006107520152600061072c0152611a2d6000f3fe608060405234801561001057600080fd5b50600436106100f55760003560e01c80634000aea01161009757806395d89b411161006657806395d89b411461029c578063a9059cbb146102ba578063d505accf146102ea578063dd62ed3e14610306576100f5565b80634000aea0146101f057806340c10f191461022057806370a082311461023c5780637ecebe001461026c576100f5565b806323b872dd116100d357806323b872dd1461016657806330adf81f14610196578063313ce567146101b45780633644e515146101d2576100f5565b806306fdde03146100fa578063095ea7b31461011857806318160ddd14610148575b600080fd5b610102610336565b60405161010f9190610fc1565b60405180910390f35b610132600480360381019061012d919061108b565b6103c4565b60405161013f91906110e6565b60405180910390f35b6101506104b6565b60405161015d9190611110565b60405180910390f35b610180600480360381019061017b919061112b565b6104bc565b60405161018d91906110e6565b60405180910390f35b61019e610706565b6040516101ab9190611197565b60405180910390f35b6101bc61072a565b6040516101c991906111ce565b60405180910390f35b6101da61074e565b6040516101e79190611197565b60405180910390f35b61020a6004803603810190610205919061131e565b6107ab565b60405161021791906110e6565b60405180910390f35b61023a6004803603810190610235919061108b565b610844565b005b6102566004803603810190610251919061138d565b610852565b6040516102639190611110565b60405180910390f35b6102866004803603810190610281919061138d565b61086a565b6040516102939190611110565b60405180910390f35b6102a4610882565b6040516102b19190610fc1565b60405180910390f35b6102d460048036038101906102cf919061108b565b610910565b6040516102e191906110e6565b60405180910390f35b61030460048036038101906102ff9190611412565b610a24565b005b610320600480360381019061031b91906114b4565b610d23565b60405161032d9190611110565b60405180910390f35b6000805461034390611523565b80601f016020809104026020016040519081016040528092919081815260200182805461036f90611523565b80156103bc5780601f10610391576101008083540402835291602001916103bc565b820191906000526020600020905b81548152906001019060200180831161039f57829003601f168201915b505050505081565b600081600460003373ffffffffffffffffffffffffffffffffffffffff1673ffffffffffffffffffffffffffffffffffffffff16815260200190815260200160002060008573ffffffffffffffffffffffffffffffffffffffff1673ffffffffffffffffffffffffffffffffffffffff168152602001908152602001600020819055508273ffffffffffffffffffffffffffffffffffffffff163373ffffffffffffffffffffffffffffffffffffffff167f8c5be1e5ebec7d5bd14f71427d1e84f3dd0314c0f7b2291e5b200ac8c7c3b925846040516104a49190611110565b60405180910390a36001905092915050565b60025481565b600080600460008673ffffffffffffffffffffffffffffffffffffffff1673ffffffffffffffffffffffffffffffffffffffff16815260200190815260200160002060003373ffffffffffffffffffffffffffffffffffffffff1673ffffffffffffffffffffffffffffffffffffffff1681526020019081526020016000205490507fffffffffffffffffffffffffffffffffffffffffffffffffffffffffffffffff81146105f25782816105719190611583565b600460008773ffffffffffffffffffffffffffffffffffffffff1673ffffffffffffffffffffffffffffffffffffffff16815260200190815260200160002060003373ffffffffffffffffffffffffffffffffffffffff1673ffffffffffffffffffffffffffffffffffffffff168152602001908152602001600020819055505b82600360008773ffffffffffffffffffffffffffffffffffffffff1673ffffffffffffffffffffffffffffffffffffffff16815260200190815260200160002060008282546106419190611583565b9250508190555082600360008673ffffffffffffffffffffffffffffffffffffffff1673ffffffffffffffffffffffffffffffffffffffff168152602001908152602001600020600082825401925050819055508373ffffffffffffffffffffffffffffffffffffffff168573ffffffffffffffffffffffffffffffffffffffff167fddf252ad1be2c89b69c2b068fc378daa952ba7f163c4a11628f55a4df523b3ef856040516106f29190611110565b60405180910390a360019150509392505050565b7f6e71edae12b1b97f4d1f60370fef10105fa2faae0126114a169c64845d6126c981565b7f000000000000000000000000000000000000000000000000000000000000000081565b60007f000000000000000000000000000000000000000000000000000000000000000046146107845761077f610d48565b6107a6565b7f00000000000000000000000000000000000000000000000000000000000000005b905090565b60006107b78484610910565b508373ffffffffffffffffffffffffffffffffffffffff163373ffffffffffffffffffffffffffffffffffffffff167fe19260aff97b920c7df27010903aeb9c8d2be5d310a2c67824cf3f15396e4c16858560405161081792919061160c565b60405180910390a361082884610dd4565b1561083957610838848484610de7565b5b600190509392505050565b61084e8282610e61565b5050565b60036020528060005260406000206000915090505481565b60056020528060005260406000206000915090505481565b6001805461088f90611523565b80601f01602080910402602001604051908101604052809291908181526020018280546108bb90611523565b80156109085780601f106108dd57610100808354040283529160200191610908565b820191906000526020600020905b8154815290600101906020018083116108eb57829003601f168201915b505050505081565b600081600360003373ffffffffffffffffffffffffffffffffffffffff1673ffffffffffffffffffffffffffffffffffffffff16815260200190815260200160002060008282546109619190611583565b9250508190555081600360008573ffffffffffffffffffffffffffffffffffffffff1673ffffffffffffffffffffffffffffffffffffffff168152602001908152602001600020600082825401925050819055508273ffffffffffffffffffffffffffffffffffffffff163373ffffffffffffffffffffffffffffffffffffffff167fddf252ad1be2c89b69c2b068fc378daa952ba7f163c4a11628f55a4df523b3ef84604051610a129190611110565b60405180910390a36001905092915050565b42841015610a67576040517f08c379a0000000000000000000000000000000000000000000000000000000008152600401610a5e90611688565b60405180910390fd5b6000610a7161074e565b7f6e71edae12b1b97f4d1f60370fef10105fa2faae0126114a169c64845d6126c9898989600560008e73ffffffffffffffffffffffffffffffffffffffff1673ffffffffffffffffffffffffffffffffffffffff1681526020019081526020016000206000815480929190600101919050558a604051602001610af9969594939291906116b7565b60405160208183030381529060405280519060200120604051602001610b20929190611790565b604051602081830303815290604052805190602001209050600060018286868660405160008152602001604052604051610b5d94939291906117c7565b6020604051602081039080840390855afa158015610b7f573d6000803e3d6000fd5b505050602060405103519050600073ffffffffffffffffffffffffffffffffffffffff168173ffffffffffffffffffffffffffffffffffffffff1614158015610bf357508873ffffffffffffffffffffffffffffffffffffffff168173ffffffffffffffffffffffffffffffffffffffff16145b610c32576040517f08c379a0000000000000000000000000000000000000000000000000000000008152600401610c2990611858565b60405180910390fd5b86600460008373ffffffffffffffffffffffffffffffffffffffff1673ffffffffffffffffffffffffffffffffffffffff16815260200190815260200160002060008a73ffffffffffffffffffffffffffffffffffffffff1673ffffffffffffffffffffffffffffffffffffffff1681526020019081526020016000208190555050508573ffffffffffffffffffffffffffffffffffffffff168773ffffffffffffffffffffffffffffffffffffffff167f8c5be1e5ebec7d5bd14f71427d1e84f3dd0314c0f7b2291e5b200ac8c7c3b92587604051610d129190611110565b60405180910390a350505050505050565b6004602052816000526040600020602052806000526040600020600091509150505481565b60007f8b73c3c69bb8fe3d512ecc4cf759cc79239f7b179b0ffacaa9a75d522b39400f6000604051610d7a919061191b565b60405180910390207fc89efdaa54c0f20c7adf612882df0950f5a951637e0307cdcb4c672f298b8bc64630604051602001610db9959493929190611932565b60405160208183030381529060405280519060200120905090565b600080823b905060008111915050919050565b60008390508073ffffffffffffffffffffffffffffffffffffffff1663a4c0ed363385856040518463ffffffff1660e01b8152600401610e2993929190611985565b600060405180830381600087803b158015610e4357600080fd5b505af1158015610e57573d6000803e3d6000fd5b5050505050505050565b8060026000828254610e7391906119c3565b9250508190555080600360008473ffffffffffffffffffffffffffffffffffffffff1673ffffffffffffffffffffffffffffffffffffffff168152602001908152602001600020600082825401925050819055508173ffffffffffffffffffffffffffffffffffffffff16600073ffffffffffffffffffffffffffffffffffffffff167fddf252ad1be2c89b69c2b068fc378daa952ba7f163c4a11628f55a4df523b3ef83604051610f259190611110565b60405180910390a35050565b600081519050919050565b600082825260208201905092915050565b60005b83811015610f6b578082015181840152602081019050610f50565b60008484015250505050565b6000601f19601f8301169050919050565b6000610f9382610f31565b610f9d8185610f3c565b9350610fad818560208601610f4d565b610fb681610f77565b840191505092915050565b60006020820190508181036000830152610fdb8184610f88565b905092915050565b6000604051905090565b600080fd5b600080fd5b600073ffffffffffffffffffffffffffffffffffffffff82169050919050565b600061102282610ff7565b9050919050565b61103281611017565b811461103d57600080fd5b50565b60008135905061104f81611029565b92915050565b6000819050919050565b61106881611055565b811461107357600080fd5b50565b6000813590506110858161105f565b92915050565b600080604083850312156110a2576110a1610fed565b5b60006110b085828601611040565b92505060206110c185828601611076565b9150509250929050565b60008115159050919050565b6110e0816110cb565b82525050565b60006020820190506110fb60008301846110d7565b92915050565b61110a81611055565b82525050565b60006020820190506111256000830184611101565b92915050565b60008060006060848603121561114457611143610fed565b5b600061115286828701611040565b935050602061116386828701611040565b925050604061117486828701611076565b9150509250925092565b6000819050919050565b6111918161117e565b82525050565b60006020820190506111ac6000830184611188565b92915050565b600060ff82169050919050565b6111c8816111b2565b82525050565b60006020820190506111e360008301846111bf565b92915050565b600080fd5b600080fd5b7f4e487b7100000000000000000000000000000000000000000000000000000000600052604160045260246000fd5b61122b82610f77565b810181811067ffffffffffffffff8211171561124a576112496111f3565b5b80604052505050565b600061125d610fe3565b90506112698282611222565b919050565b600067ffffffffffffffff821115611289576112886111f3565b5b61129282610f77565b9050602081019050919050565b82818337600083830152505050565b60006112c16112bc8461126e565b611253565b9050828152602081018484840111156112dd576112dc6111ee565b5b6112e884828561129f565b509392505050565b600082601f830112611305576113046111e9565b5b81356113158482602086016112ae565b91505092915050565b60008060006060848603121561133757611336610fed565b5b600061134586828701611040565b935050602061135686828701611076565b925050604084013567ffffffffffffffff81111561137757611376610ff2565b5b611383868287016112f0565b9150509250925092565b6000602082840312156113a3576113a2610fed565b5b60006113b184828501611040565b91505092915050565b6113c3816111b2565b81146113ce57600080fd5b50565b6000813590506113e0816113ba565b92915050565b6113ef8161117e565b81146113fa57600080fd5b50565b60008135905061140c816113e6565b92915050565b600080600080600080600060e0888a03121561143157611430610fed565b5b600061143f8a828b01611040565b97505060206114508a828b01611040565b96505060406114618a828b01611076565b95505060606114728a828b01611076565b94505060806114838a828b016113d1565b93505060a06114948a828b016113fd565b92505060c06114a58a828b016113fd565b91505092959891949750929550565b600080604083850312156114cb576114ca610fed565b5b60006114d985828601611040565b92505060206114ea85828601611040565b9150509250929050565b7f4e487b7100000000000000000000000000000000000000000000000000000000600052602260045260246000fd5b6000600282049050600182168061153b57607f821691505b60208210810361154e5761154d6114f4565b5b50919050565b7f4e487b7100000000000000000000000000000000000000000000000000000000600052601160045260246000fd5b600061158e82611055565b915061159983611055565b92508282039050818111156115b1576115b0611554565b5b92915050565b600081519050919050565b600082825260208201905092915050565b60006115de826115b7565b6115e881856115c2565b93506115f8818560208601610f4d565b61160181610f77565b840191505092915050565b60006040820190506116216000830185611101565b818103602083015261163381846115d3565b90509392505050565b7f5045524d49545f444541444c494e455f45585049524544000000000000000000600082015250565b6000611672601783610f3c565b915061167d8261163c565b602082019050919050565b600060208201905081810360008301526116a181611665565b9050919050565b6116b181611017565b82525050565b600060c0820190506116cc6000830189611188565b6116d960208301886116a8565b6116e660408301876116a8565b6116f36060830186611101565b6117006080830185611101565b61170d60a0830184611101565b979650505050505050565b600081905092915050565b7f1901000000000000000000000000000000000000000000000000000000000000600082015250565b6000611759600283611718565b915061176482611723565b600282019050919050565b6000819050919050565b61178a6117858261117e565b61176f565b82525050565b600061179b8261174c565b91506117a78285611779565b6020820191506117b78284611779565b6020820191508190509392505050565b60006080820190506117dc6000830187611188565b6117e960208301866111bf565b6117f66040830185611188565b6118036060830184611188565b95945050505050565b7f494e56414c49445f5349474e4552000000000000000000000000000000000000600082015250565b6000611842600e83610f3c565b915061184d8261180c565b602082019050919050565b6000602082019050818103600083015261187181611835565b9050919050565b600081905092915050565b60008190508160005260206000209050919050565b600081546118a581611523565b6118af8186611878565b945060018216600081146118ca57600181146118df57611912565b60ff1983168652811515820286019350611912565b6118e885611883565b60005b8381101561190a578154818901526001820191506020810190506118eb565b838801955050505b50505092915050565b60006119278284611898565b915081905092915050565b600060a0820190506119476000830188611188565b6119546020830187611188565b6119616040830186611188565b61196e6060830185611101565b61197b60808301846116a8565b9695505050505050565b600060608201905061199a60008301866116a8565b6119a76020830185611101565b81810360408301526119b981846115d3565b9050949350505050565b60006119ce82611055565b91506119d983611055565b92508282019050808211156119f1576119f0611554565b5b9291505056fea2646970667358221220be7386dc501a59a531ac2e00a7269bd0de344b470ebbf05c24c1191cccf6338564736f6c63430008130033","linkReferences":{}},"methodIdentifiers":{"DOMAIN_SEPARATOR()":"3644e515","PERMIT_TYPEHASH()":"30adf81f","allowance(address,address)":"dd62ed3e","approve(address,uint256)":"095ea7b3","balanceOf(address)":"70a08231","decimals()":"313ce567","mint(address,uint256)":"40c10f19","name()":"06fdde03","nonces(address)":"7ecebe00","permit(address,address,uint256,uint256,uint8,bytes32,bytes32)":"d505accf","symbol()":"95d89b41","totalSupply()":"18160ddd","transfer(address,uint256)":"a9059cbb","transferAndCall(address,uint256,bytes)":"4000aea0","transferFrom(address,address,uint256)":"23b872dd"},"id":47}